:020000040000FA
:060000000216870209DC74
:03001300020B32AB
:03002B00021418A4
:03003300020C2696
:03003B00020B872E
:030053000209118E
:03005B0002118B04
:030063000211A6E1
:03006B00020BCCB9
:03007B00020BFD78
:10008300020970010020FD0002012C05000000019F
:10009300591C651C00006B1C771C000000007D1CB4
:1000A300A11CA71CAD1C0000000000000000010102
:1000B3000204081020408001FFFF090D0101040123
:1000C30000010000000000000006FFFFFFFFFFFF2C
:1000D3000101010400C419000000E8030000FFFF50
:1000E300901AE803000064006400B801A0BB0D008F
:1000F300A0BB0D00020200F8FF0705021E04010564
:100103001E02051E020A0A01010808010310270244
:10011300803E0102FEFFE8030A050001FFFF010A1A
:100123001401E0C503423F1A51123FF304B53F00E7
:1001330000803E010105030101FF0F10FEFFF03AAD
:1001430000000000623900000000FF000000FF0013
:10015300C082C0831202B0600814601214601C8055
:100163002BEA6005EB42808023E85280801EEA6020
:1001730005EB42908016E852908011EBC394205017
:100183000BEA6005EB42A08003E852A002021EC006
:1001930082C0831202B0600814602C146050807B0C
:1001A300E852F374016A601274026A601574046A97
:1001B3007003EB428FEB42FD806153F7DFE8528F10
:1001C30080F343F72080F6E852F474016A601274F6
:1001D300026A601574046A7003EB42F6EB42FE8018
:1001E3003A53F7BFE852F680F343F74080F6EBC388
:1001F30094205027E852F574016A601274026A6011
:100203001574046A7003EB42F7EB42FF800D53F75A
:100213007FE852F780F343F78080F6D083D08222C1
:10022300C082C0831202B0600814602B14604E8039
:100233006CE852F352FD74016A600F74026A600F36
:1002430074046A7058EB428F805353F7DF80034383
:10025300F720E8528F8046E852F452FE74016A6038
:100263000F74026A600F74046A7032EB42F6802DD9
:1002730053F7BF800343F740E852F68020EBC39463
:1002830020501AE844E0F852F552FF74016A6010F6
:1002930074026A601374046A7003EB42F702021E6D
:1002A30053F77FE852F780F543F78080F6E9540768
:1002B300FC748A2CF582E4341DF583E0FBF4F8E941
:1002C300C4540F540322C082C0831202B0600814C6
:1002D300601214601C802DEA6005EB42FD8025E866
:1002E30052FD8020EA6005EB42FE8018E852FE8052
:1002F30013EBC39420500DEA6005EB42FF800574B5
:10030300E04852FF02021EC082C0831202B060089E
:100313001460151460228034EA6005EB4280800388
:10032300E85280EB42FD8024EA6005EB42908003B3
:10033300E85290EB42FE8014EBC39420500EEA6027
:1003430005EB42A08003E852A0EB42FF02021EE944
:10035300C4540F54036007146013146020227801FF
:10036300E8F4FBEA602014602114601522740F592D
:10037300C394045004780280E7780480E37808800B
:10038300DFE58C586004EB528C22E8428C22121673
:1003930097601D1216A67005191919801A121528CF
:1003A300701F121500C37003E6673319191940074C
:1003B3001818182208080874FFF618F618F618F625
:1003C30022121500601712174C702192F012175564
:1003D3007019501720F014080808090909E7F618DE
:1003E30019E7F61819E7F61819E7F62212175560F8
:1003F300E6E869701F0808E62480F608E436F61874
:10040300547FB47F0CE654806007F6E418F618F6C0
:1004130022181822E9C6CC08C6CD08C6CE08C6CF16
:10042300C0E0E8C0E0EAC0E0EBC0E009E9F809E7B2
:10043300FA09E7FBE6F918E6F8C3EC98ED99EE9AAA
:10044300EBC2E7F5F0EFC2E795F0500E600CEBCF8F
:10045300FBEACEFAE9CDF9E8CCF8EAA2E7D2E7FA6B
:10046300EB33FB13F5F0EEA2E7D2E7FEEF33FFC564
:10047300F013A2E730E601B313C5F0C3C0E0C0F048
:100483007F00C39BFB605E9418600F401D14601ACD
:10049300D0E023F9D0E0F80205728AF0E94860035E
:1004A300D2F0E4AFF0FAF9F8803BEB30E40D89F0D9
:1004B300EA6003D2F0E4AFF0F9CAF8EB30E30D8859
:1004C300F0EF6002D2F0AFF0E4CAC9F8EB54076072
:1004D30014FBC3EA13FAE913F9E813F8EF13500214
:1004E300D2E0FFDBEDD0E0C0E030E739C3E49FFFAB
:1004F300F5F0EC98FC42F0ED99FD42F0EE9AFE42E5
:10050300F0D0E0F9D0E0F8E5F0607AE923F9EE20E5
:10051300E742D8028067C3EF33FFEC33FCED33FDD2
:10052300EE33FE80EAEC28FCED39FDEE3AFED0E036
:1005330023F9D0E0F84002801BC3EE13FEED13FD58
:10054300EC13FCEF135002D2E0FF08B800067F7FE4
:1005530074FF802EEF3350178CF020F00260100CE4
:10056300BC000C0DBD00080EBE000408E860DFE906
:1005730033E813FFEE2313FE4F4D4C8008E95480FC
:10058300FFE4FEFDFCEE33EF33F47004FCFD7E80EC
:10059300D0E0FBD0E0FAD0E0F8D0E0CFC618CEC66A
:1005A30018CDC618CCC6F92212169770041818185D
:1005B300221216A6700D74FFF61819F61819F618FC
:1005C30019F622E7548066F6121755700F12174C6E
:1005D30070F014F608F608F608F680D112174C707E
:1005E3000CF608F608768008E6447F80EC121503C3
:1005F300700C12152B60BFE65480F6E480BB121515
:100603002B700519191980A5E869700C763F1876C7
:100613008018F618F6E8F922E6CDC0E018ECC0E041
:10062300E633CD33CDD313F6E719FCE7191933CCF1
:1006330033C3947F400ECD9D502408E65480F6E4E6
:1006430018F6800FF4043D14501408E6447FF6189E
:100653007680E418F618F6D0E0FCD0E0FD22CCD387
:1006630013CCFD18E4C6CBC0E018E4C6CAC0E0084A
:1006730008ED08C633E613F618E433C675F003C372
:10068300CA97CA09CB97CB199C40047D08802EBD1D
:10069300000302075416B6FF050606081618C3CA58
:1006A30033CACB33CB33CA27CA09CB37CB193CC3A5
:1006B3007D08803E187D0820E75CC633C6CA33CA6E
:1006C300CB33CB33DDF1D5F0EB30E77BCA97CA09E7
:1006D300CB974ACB199C406F4B7025E620E02180D5
:1006E30066187D08C3CA97CA09CB97CB199CD3C692
:1006F30033C6CA33CACB33CB3350C9DDE7D5F0E1B8
:10070300D3E4C636C608C636C608C636C608C636D5
:10071300C61818188031C3CA97CA09CB97CB199C3E
:10072300B34097C633C6CA33CACB33CB33DD34D5D4
:10073300F02EC6A2E0C640C8CA27CA09CB37194A59
:1007430070BECB3CB480B90808E63308E633601FBB
:10075300181818D0E0FAD0E0FBD0E0FCD0E0FD227E
:10076300187D08CA27CA09CB37CB193CD38080131D
:10077300F618E4B67F11F618B6FF0EF618C6047025
:10078300D20808768080CAF618F618F680C50012DB
:100793001697604F1216A66012E7548066F612157C
:1007A30028701112174C703B090909F4F618F61852
:1007B300F618F6221215007015121755080808606E
:1007C300EAE6447FF618768018E4F618F622121744
:1007D30055601612174C7012E4F608F608F608E690
:1007E3005480F609090918181822EAC0E0EBC0E0A2
:1007F300ECC0E0EDC0E0E687F0A4FBACF008E687D0
:10080300F0A42CFCE435F0FA1809E687F0A42C4B8D
:1008130060027401CA35F0FCE433FB09E687F0D2C9
:10082300F7A42CCB35F0FC1908E687F0A42BCC35C4
:10083300F0FBE433FD0819E687F0D2E7A42C4ACB9A
:1008430035F0CD3400FC09E687F0D2E7A42DCC3592
:10085300F0FDE433FA0918E687F0D2F7A42CCD357E
:10086300F0CA3400FC08E687F0D2E7D2F7A42ACC1A
:1008730035F07A7E20E70B0ACB33CBCD33CDCC33A7
:10088300CC33CB3350147004ED30E00ED2F1E4CD11
:100893003DCDCC3CCC3B5005DA05C2F1EB547FC6D1
:1008A3003308E63392F0FBE73309E733C39A502D5D
:1008B3002B70190C0D4C4D70151806E608C33370D8
:1008C3000D20F10AA2F013F6E418800B4024E4F69D
:1008D30030F002768018F618F618F68024D33B140D
:1008E300501074FFA2F013F6187680E418F618F689
:1008F300800FA2F013F618E63303F618ECF618EDA2
:10090300F6D0E0FDD0E0FCD0E0FBD0E0FA22C0E07E
:1009130074F1120E22A2AFE433F509D2AF85A70812
:10092300AFA1EF5508FE74105E600612194D75A154
:10093300EF74085E600812195375A1F78024EFA2C3
:10094300E092F0E508A2E082F05017906198E0F899
:1009530090049CE0C398A2D265D0335002E8F075AE
:10096300A1FEE509A2E092AF7F02020E81C0E0740E
:10097300F2120E22A2AFE433FED2AF9061A4E0F8EC
:10098300759B00E59158540860087591F712199BFF
:100993008023E59158541060087591EF1219A180D6
:1009A30014E591A2E092F0E8A2E082F05007E0C2E1
:1009B300E0F0121AEB9061A3E0F8E5E95854046003
:1009C3000E121AC175E9FB906193E0A2E640F2EEC4
:1009D300A2E092AF7F01020E81C0E074F2120E22F8
:1009E300A2AFE433FED2AF9061A5E0F8E5BF58545F
:1009F30004600675BFFB121B0380D4120A4930F052
:100A030039120A8E8034120A4920F01430E72B740D
:100A1300FFFCFBFA747F8022E4FCFBFA7480801AEB
:100A2300B48008BC00F2BB00EF800F50EBF9E4C3C5
:100A33009AFAE49BFBE49CFCE499C6CC18C6CB1859
:100A4300C6CA18C6F922E4C9C608CAC608CBC6D3A3
:100A5300330308CCC63392F0C3947F402E941840DE
:100A630019C9B90704CACBCC225025C309CA33CA52
:100A7300CB33CBCC33CC33D9F422F4600DC9CCC304
:100A830013CB13CBCA13CAD9F6CC22E4FCFBFA224C
:100A930014FCFBFA22C3E498F8E499F9120AD9800A
:100AA30026C3E49AFAE49BFBE920E7E9120AD9E4B6
:100AB30098F8E499F922C3E498F8E499F9120AD969
:100AC300E498F8E499F9C3E49AFAE49BFB22EB2057
:100AD300E7CFE920E7E0B90010BB0008E88AF0841B
:100AE300F8AAF022E4FBC8FA22EB70227B10C83389
:100AF300C8C933C9335007C39AC3DBF280069A507F
:100B0300012ADBEAC833F4C8C933F4C9FA2275F001
:100B130008E4C833C8C933C933C99AC99B5004C947
:100B23002AC93BD5F0ECFBC833F4C8E4C9FA22C0A8
:100B3300E0C0D0E8C0E0E9C0E0C082C083A8C1E85B
:100B4300C0E0900409E0F8748828F582E43403F5E2
:100B530083D0E0F0900408E0F8A3E0687006E59520
:100B630090040BF0900409E004F0C394804002E485
:100B7300F0A374C6F0D083D082D0E0F9D0E0F8D0EF
:100B8300D0D0E032C0E0C0D0E8C0E0E9C0E0C0822D
:100B9300C08390048CE0F8A3E0687008539AFBA329
:100BA30074018022C2E990048CE0F8740128F07487
:100BB3000C28F582E43404F583E0F5C190048CE05D
:100BC300C394804002E4F080ACC0E074F2120E22C1
:100BD300A2AFE433FED2AF90062DE05589600FE556
:100BE30089FA7900121D8B90062DE0F45289C2C553
:100BF300EEA2E092AF7F01020E81C0E074F2120E0A
:100C030022A2AFE433FED2AF90062EE0558A600FE6
:100C1300E58AFA7901121D8B90062EE0F4528AC2FE
:100C2300EB80CDC0E074F2120E22A2AFE433FED209
:100C3300AF90062FE0558B600FE58BFA7902121DFA
:100C43008B90062FE0F4528BC2E880A4080808EAD0
:100C5300C0E0EBC0E086F0E7A4FA180986F0E7A449
:100C63002AFA180986F0E7A42AFA180986F0E7A4F5
:100C73002AFA1986F0E7A4FBE5F02AFA190886F0A8
:100C8300E7A42BFBE5F03AFA190886F0E7A42BFB5F
:100C9300E5F03AFA18180986F0E7A4C5F02BFBE44F
:100CA3003AFA1908E7C5F0C6A426F6E5F03BFBE4DB
:100CB3003AFA1886F0E7A4F6E5F00826F6E43B08CE
:100CC300F6E43A08F6D0E0FBD0E0FA22080808E69A
:100CD30030E711121564120CE7080808C64480C6F1
:100CE30018181822181818E9799EC608CAC608CB1E
:100CF300C608CCC6C370207996CACBCC7019798E3E
:100D0300CBCC70137986CC700EF9802ACA33CACB48
:100D130033CBCC33CC331930E7F2CCCBCA335014BA
:100D23007004EA30E00DE4CA3ACACB3BCBCC3CCCEE
:100D3300500209C3E913C6CC182313C6CB18C6CA7D
:100D430018C6F922E4CFC0E0E4CEC0E0E4CDC0E0B1
:100D5300E4CCC0E075F020E626F608E633F608E6B4
:100D630033F608E633F6181818EC33FCED33FDEED2
:100D730033FEEF33FFC3EC9709ED9709EE9709EFC5
:100D830097191919400FFFEC97FC09ED97FD09EE30
:100D930097FE191906D5F0BFECF709EDF709EEF741
:100DA30009EFF7191919D0E0FCD0E0FDD0E0FED02F
:100DB300E0FF222518C582C0E0E51934FFC583C0D2
:100DC300E0E518C3958224F810AF0885831985825E
:100DD300188008858319858218D2AFCEF0A3E52049
:100DE300F0A37808E608F0A3DEFAEFF0A3E5812488
:100DF300FAF8E608F0A3E608F0A3E608F0A308086B
:100E0300E608F0A3E608F0A315811581D0E0FED033
:100E1300E0F8158115811581E8C0E0EEC0E022C03D
:100E2300D02518C582C0E0E51934FFC583C0E0E5CD
:100E330018C3958224F310AF08858319858218801F
:100E430008858319858218D2AFC8F0A3E9F0A3EA15
:100E5300F0A3EBF0A37908E709F0A3D8FAECF0A329
:100E6300EDF0A3EEF0A3EFF0A3D0E0F0A3D0E0F019
:100E7300A3D0E0F0A3E520F0A3E5F0F0A3228519C9
:100E830083851882E0C0E0A3E0F9A3E0FAA3E0FBC6
:100E9300A37808E0F608A3DFFAE0FCA3E0FDA3E0F3
:100EA300FEA3E0FFA3E0C0E0A3E0C0E0A3E0F5D031
:100EB300A3E0F520A3E0A3F5F010AF08858319851F
:100EC30082188008858319858218D2AFD082D08397
:100ED300D0E0F8D0E032121567181818120D471237
:100EE300163619191922121636191919080808E69F
:100EF30018181820E7E0120D471215671818182262
:100F0300090909E719191920E7DC080808E6181880
:100F13001820E703020D47121567181818120D471A
:100F230012156718181812163619191922121737BD
:100F3300B90003020F6FE4900331782E791B80020E
:100F4300F0A3D8FCD9FA7A5E7B1D90008678CE791F
:100F5300018015E493A3AD82AE838A828B83F0A3D1
:100F6300AA82AB838D828E83D8E9D9E775823C75DB
:100F730083BB740712138F7582CF75833674001287
:100F8300138FE4731E75F0108E1A8F1B85821F85D5
:100F9300831E851882851983E0CEA3E0CF851F8247
:100FA300851E83EBC9EAC8EDCBECCAC3E833C8E9B5
:100FB30033C9EA33CAEB33CBC3EA9EF51DEB9FF586
:100FC3001CB35004AB1CAA1DEC33CCED33CDD5F0D0
:100FD300DAAE1AAF1B22121697601C1216A6601700
:100FE300121755700712174C7001D322C0D0121775
:100FF3004C7006D0D0B322C32233D0D0501430E08B
:10100300F6C3E7960809E7960809E7960809E796FD
:10101300B32220E0D5E6970809E6970809E6970882
:1010230009E697B322121697601B1216A6601612D2
:101033001755700712174C600CB322C0D012174C0F
:101043007005D0D022C32233D0D0501330E0EBC38D
:10105300E7960809E7960809E7960809E796222024
:10106300E0E4E6970809E6970809E6970809E69792
:1010730022D083D082ECC0E0EDC0E0E493A3FCE493
:1010830093A3FDED4C600D12114CEC24FFFCED34E9
:10109300FFFD80EFE493A3FCE493A3FDED4C600D0F
:1010A300121252EC24FFFCED34FFFD80EFD0E0FD83
:1010B300D0E0FCE493A3C0E0E493C0E0228519836D
:1010C300851882E0A3FEE0A3F5207808E0A3F608E4
:1010D300DFFAE0A3FFE0A3C0E0E0A3C0E0E0A3C029
:1010E300E0E0A3C0E0E0A3C0E010AF08858218856C
:1010F30083198008858218858319D2AFD083D08263
:10110300021395D083D082E9C0E0E493A3C386F0B1
:10111300C5F095F0F908E493A386F0C5F095F07057
:101123000BE493A3C3994005E9048002A3E475F09B
:1011330002A42582F582E5F03583F583D0E0F9E456
:1011430093A3C0E0E493C0E022C0E0C3E493960815
:101153007401939618400FE4936670080874019322
:10116300661870007019A3A3C3E4939608740193DF
:101173009618A3A3400DD0E0D0E0D0E00210B0A3B6
:10118300A3A3A3A3A3D0E022C0E074F2120E22C251
:10119300D9901DA71211BE4005E0F91220797F01F5
:1011A300020E81C0E074F2120E22C2DC901DA9125D
:1011B30011BE4005E0F912207980E3E0C39400A258
:1011C300D265D033227404800474028000CCC0E062
:1011D300EDC0E0E518C39CCCAD1950011D10AF065E
:1011E3008C188D1980068C188D19D2AF121311D05B
:1011F300E0FDD0E0FC2274028000CCC0E0EDC0E052
:10120300E518C39CCCAD1950011D10AF068C188D89
:101213001980068C188D19D2AF1212CDD0E0FDD0F3
:10122300E0FC2212169760251216A66020121755AD
:10123300700302174C080808E76670101819E76670
:10124300700A1819E76670041819E76622F422C0B9
:10125300E0C0F088F0E493667008087401936618A0
:101263007000A8F0A3A3700BD0F0D0E0D0E0D0E0E2
:101273000210B0A3A3D0F0D0E022D083D082CCC0A0
:10128300E0E493A360061213321470FAE493A360AC
:10129300061214951470FAD0E0FCE493A3C0E0E4C2
:1012A30093C0E022C008C3E096F50808A3E0964285
:1012B3000808A3E096420808A3E0964208A2D26574
:1012C300D033E5087001D3D00822CAC0E0E493A369
:1012D300C582CCC582C583CDC583F0A3C582CCC5E9
:1012E30082C583CDC583DAE5D0E0CA22A2E792D6D0
:1012F3005002F40430F70663F0FF05F0B3400384B3
:10130300800384F40430D60563F0FF05F022CAC0DD
:10131300E0E0A3C582CCC582C583CDC583F0A3C558
:1013230082CCC582C583CDC583DAE6D0E0CA22C0AC
:10133300E0E493A3D39C5010E493A3C39C400AD04E
:10134300E0D0E0D0E002129AA3A3A3D0E022700978
:10135300080808226016181818C6C333C608C6330F
:10136300C608C633C608C633C6D5E0EA22C008C3DA
:10137300E096F50808A3E096420808A3E096420821
:1013830008A3E09645087001D3D00822C09FF59FBB
:10139300E473D09F22D083D082C09FE493C0E074D3
:1013A3000193C0E0740293F59F227404800A7403CE
:1013B3008006740280027401C0E0F4041213E3D0C7
:1013C300E01216E22200C0D0251810AF08F518501D
:1013D3000C05198008F51850020519D2AFD0D02298
:1013E3002518F58210AF08F518400C15198008F57B
:1013F3001840021519D2AF85198322BB0102E722D7
:10140300C082C08389828A83BB0003E08002E493A5
:10141300D083D08222C0E0C0D0E8C0E0A8A8D2AF79
:10142300C2C7E8A2E792AFD0E0F8D0D0D0E03260F4
:1014330017080808C6A2E713C618C613C618C613AA
:10144300C618C613C6D5E0E9226016080808C6C345
:1014530013C618C613C618C613C618C613C6D5E0D6
:10146300EA22C3E0C696F608A3E0C696F608A3E010
:10147300C696F608A3E0C696F6222518F8E43519B1
:10148300F9222518FAE43519FB222518FCE435194D
:10149300FD22C0E0E493A36C7009D0E0D0E0D0E07B
:1014A30002129AA3A3D0E022251810AF08F5184022
:1014B3000C15198008F51840021519D2AF22E766FA
:1014C30070100809E766700A0809E76670040809DE
:1014D300E76622C3E09608A3E09608A3E09608A374
:1014E300E096A2D265D03322E066701008A3E066CE
:1014F300700A08A3E066700408A3E06622191919AC
:10150300E70947097009E727097005E733F422095A
:1015130022C3E096F008A3E096F008A3E096F00853
:10152300A3E096F022181818E60846087009E62684
:10153300087005E633F4220822C3E4939608740185
:1015430093960874029396087403939622C3E697BE
:10155300F60809E697F60809E697F60809E697F606
:1015630022181818E4C396F608E496F608E496F6EB
:1015730008E496F622E056F008A3E056F008A3E04C
:1015830056F008A3E056F022E667F60809E667F688
:101593000809E667F60809E667F622E493F6087495
:1015A3000193F608740293F608740393F622E65740
:1015B300F60809E657F60809E657F60809E657F666
:1015C30022E627F60809E637F60809E637F608099A
:1015D300E637F622E026F608A3E036F608A3E0365F
:1015E300F608A3E036F622E026F008A3E036F0087A
:1015F300A3E036F008A3E036F022E647F60809E652
:1016030047F60809E647F60809E647F6227004227A
:10161300600D18C6C333C608C633C6D5E0F4182216
:10162300E056F608A3E056F608A3E056F608A3E052
:1016330056F622E4C397F709E497F709E497F70905
:10164300E497F722600D08C6A2E713C618C613C6AF
:10165300D5E0F322C6F4C608C6F4C608C6F4C60825
:10166300C6F4C622C3E09608A3E09608A3E0960852
:10167300A3E09622C3E7960809E7960809E79608C8
:1016830009E7962275D00075813F751831751903E6
:1016930000020F30E6084608C3134608336002E62B
:1016A30033F422E7094709C3134709336002E733D9
:1016B300F422600C08C6C313C618C613C6D5E0F4DB
:1016C30022E6F008A3E6F008A3E6F008A3E6F0227A
:1016D300E0F608A3E0F608A3E0F608A3E0F622CAC2
:1016E300C0E0E6F0A308DAFAD0E0FA22E0FCA3E0D7
:1016F300FDA3E0FEA3E0FF22EAF0A3EBF0A3ECF0EE
:10170300A3EDF022E0FAA3E0FBA3E0FCA3E0FD22BB
:10171300E8F0A3E9F0A3EAF0A3EBF022ECF0A3EDE9
:10172300F0A3EEF0A3EFF022E0F8A3E0F9A3E0FAD0
:10173300A3E0FB22E5C754F84401F5C7790122254C
:1017430018F582E43519F58322E727194719471954
:101753004722E62618461846184622C2AF75D69F7A
:1017630002000022121398B4E40512139808E60548
:10177300121398BEE605121398BDE705121398F0ED
:10178300E805121398E2BE0712139855BF07121308
:1017930098DBBF0712139821FF0512139832FF0538
:1017A300121398D0FF05121398DBFF05121398F755
:1017B300FF04121398E4FF0612139859D00712136B
:1017C3009869D0071213987ED007121398E4D007B4
:1017D3001213985CCD07121398DFCD0712139845A7
:1017E300CE071213983EB90712139879B90712134B
:1017F30098D4B9071213982CBA07121398B2BA07E0
:10180300121398EEBA07121398EDFF03121398FD03
:10181300FF03121398C7FF011213989FB407121303
:1018230098E9B4071213987FB50712139805B60702
:1018330012139836B6071213984EB607121398C2AE
:10184300B607121398D8B607121398EBB6071213FC
:1018530098F5B60712139803D405121398B4D80554
:10186300121398CBD905121398E7D9051213986A66
:10187300DA0512139831DD0512139800800612134E
:1018830098638006121398138106121398DE81065B
:1018930012139833830612139813840612139810A5
:1018A3008506121398E886061213980F87061213FB
:1018B300989B8706121398F588061213986B89066E
:1018C300121398A98906121398BB8906121398CA92
:1018D3007700121398987900121398D47A00121390
:1018E30098997C00121398FFE8061213982BE906C7
:1018F3001213989CEB06121398DCEB061213981C38
:10190300EC0612139830EC0612139849EC061213E6
:10191300983AED06121398DFED06121398F3ED06CD
:10192300121398FCC40712139820C5071213983991
:10193300C5071213986BC5071213989BC50712139B
:1019430098C8C5071213982AC60712139839C607F1
:1019530012139843C60712139850C6071213980917
:10196300B20712139829B20712139868B207121319
:101973009883B207121398A2B20712139808B307F9
:1019830012139811B3071213986EB3071213989298
:10199300B30712139853B40712139860B4071213C2
:1019A3009871B407121398EED00712139806D10753
:1019B30012139832D10712139808850712139862ED
:1019C30086071213987086071213988386071213DB
:1019D30098988607121398AD8607121398C0860746
:1019E3001213983487071213989987071213983B99
:1019F3008807121398FF88071213980F8907121389
:101A0300981E890712139854FF0312139878FF0343
:101A1300121398A0FF03121398C8FF03121398D44C
:101A2300FD04121398FBFD0412139819FE041213FC
:101A3300988CFE0412139836AF071213984FAF0712
:101A43001213985BAF071213986FAF071213988D99
:101A5300AF0712139897AF07121398A1AF0712138A
:101A630098B4AF071213983AB007121398AFB007A0
:101A7300121398DEB0071213982CB1071213987B38
:101A8300B10712139896B107121398A0B107121356
:101A930098B1B107121398F4B107121398ACD20797
:101AA300121398C89D06121398F29D061213980FED
:101AB3009E06121398229E06121398389E0612133E
:101AC30098969E06121398CE9E06121398C2A206EB
:101AD30012139807A4061213983AA4061213989D9A
:101AE300A40612139807A6061213982FA60612131C
:101AF3009844A60612139854A60612139898A6069D
:101B0300121398F3A60612139803A706121398F15B
:101B1300C8071213980BC90712139833C907121376
:101B2300984CC90712139870C9071213988EC907E6
:101B3300121398A5C907121398D3C907121398EE65
:101B4300C9071213983BD307121398BCA2071213A9
:101B530098CCA207121398D3A30712139807A407CC
:101B630012139829A4071213984CA4071213986A06
:101B7300A407121398A4A40712139809A507121314
:101B8300984BA5071213988AA507121398BBA507AC
:101B9300121398F2A5071213989EF7021213989A3C
:101BA300F802121398B8F802121398DFF80212130E
:101BB30098A4FA02121398C3FA0212139878FB023C
:101BC3001213983FFC021213984EFD0212139880D1
:101BD300FE02121398A99607121398FE9607121382
:101BE300987897071213988B9707121398B2970751
:101BF3001213984598071213981F990712139833D5
:101C0300A7061213985EA7061213981DA8061213AF
:101C1300985BA806121398E1A8061213987BAC06EA
:101C23001213988EAE0612139809BA04121398432E
:101C3300BA0412139843BC041213987EBE04121301
:101C4300986CC104121398DEC10412139878C2046D
:101C53001213988EC20412139841C3041213987D71
:101C6300C30412139894C304121398C0C304121329
:101C730098C3C3041213981CC4041213986FC404AA
:101C830012139827C50412139810C6041213989DB3
:101C9300C804121398B6CA04121398E9CA0412139B
:101CA3009849CB041213989BCB041213981ECC04AF
:101CB300121398B2CC04121398BECE041213985D7B
:101CC300D00412139897D10412139836D304121325
:101CD3009882D3041213985ECF0712139863CF0729
:101CE3001213987DCF07121398BFCF07121398E8EA
:101CF300CF0712139802D0071213981BD0071213A1
:101D0300983FD007121398578907121398AB890786
:101D13001213987B8A07121398AD8A07121398DA65
:101D23008A071213982B8B07121398558B071213DC
:101D330098798B07121398B98B07121398438C0762
:101D4300121398748C071213989B8C07121398E143
:101D53008C07121398FF8C07121398238D07121305
:101D630098438D07121398798D07121398ABC50604
:101D7300121398E5C50612139820C7061213980785
:101D8300EE06121398BBEE0612139855CC071213E6
:101D930098C6CC0712139828CD07121398C8DD06EE
:101DA300121398D9DE06121398EADF061213982B42
:101DB300E10612139881E106121398BFE10612138C
:101DC30098CDE1061213985EE3061213984AA6070C
:101DD300121398ACA60712139890A807121398F839
:101DE300F20612139839F3061213986FF3061213BF
:101DF3009896F40612139832F606121398D2F60642
:101E03001213980080071213981A83071213989AD3
:101E1300830712139831C2071213986EC207121365
:101E230098A2C207121398B5C2071213985AAC07A7
:101E33001213986DAD071213982FAE07121398DC87
:101E4300AE0712139807AF0712139899C30712131B
:101E530098B9C307121398CCC407121398CFC407B9
:101E6300121398ABC707121398E1C707121398FB15
:101E7300C7071213983DC8071213984DC8071213CA
:101E830098E7C807121398B0BE06121398BABE0695
:101E9300121398F4BE061213985DBF061213987AB4
:101EA300BF061213981CC00612139825C0061213FE
:101EB300986AC00612139893C006121398A0C0061E
:101EC30012139811C1061213989CC106121398EAB3
:101ED300C10612139828C2061213988DC206121354
:101EE30098B0C20612139827C3061213987EC3062E
:101EF300121398B9C306121398EEC306121398006F
:101F0300C40612139812C40612139831C40612138E
:101F1300983AC406121398F5C40612139841C506DD
:101F23001213987FC5061213985AC6071213989A6C
:101F3300C70712139808B7071213983EB70712136F
:101F43009886B707121398DFB80712139873D1074F
:101F53001213987795051213989B9605121398D52B
:101F630096051213987F9805121398A998051213D2
:101F7300981E9B051213985E9B05121398F49C05FB
:101F8300121398919D05121398E39D0512139886D9
:101F93009E05121398BE9E05121398009F051213F7
:101FA300986FA005121398BDA105121398EEA3050F
:101FB3001213981CA40512139843A4051213984CEA
:101FC300A4051213989CA4051213982EA5051213A9
:101FD300985DA805121398E0A805121398DEFF0276
:101FE300121398F4FF02121398BC9A07121398D293
:101FF3009A07121398769B07121398B59B0712132F
:1020030098D29B07121398039C07121398509C07AE
:10201300121398839C07121398BE9C07121398B34C
:102023009E071213984CD20612139877D4061213F4
:1020330098A9D506121398C1D506121398E4F7068A
:102043001213981FF906121398B1FA0612139889FE
:10205300B00612139845B106121398B5B2061213BF
:1020630098F3B30612139890B4061213981CBD0785
:1020730012139892BD071213982DA905121398FFF6
:10208300A90512139849AA05121398FEAA0512135B
:10209300985DAB051213980AAD0512139876AD053A
:1020A300121398F2AE051213981EAF051213985827
:1020B300B10512139881B105121398E6B1051213F5
:1020C3009838B20512139889B305121398DCB30537
:1020D30012139858B40512139869E30612139890D3
:1020E300E306121398E4E506121398F7E5061213B4
:1020F300984CE6061213987EE706121398FFE7063C
:102103001213985ECE07121398BDCE07121398FBD5
:10211300CE071213983CCF0712139855BA05121322
:1021230098BEBA0512139809BB0512139844BB0550
:10213300121398B9BD05121398D3C105121398F35E
:10214300C30512139801C505121398DBC5051213B5
:102153009800CC0612139833CC061213986CCD0654
:1021630012139812CF061213982BCF06121398CE80
:10217300CF0612139831D00612139868D1061213A2
:1021830098477F00121398917F0012139821CA0772
:1021930012139830CA0712139871CA07121398EDD5
:1021A3007F0012139883F303121398EEF3031213B1
:1021B30098ECF40312139871F603121398F7F603CD
:1021C300121398D0F703121398B0F803121398CF91
:1021D300F903121398E8FA0312139890FD031213EC
:1021E30098A33D00121398AF3D00121398113E00BF
:1021F3001213981B3E00121398AE3E00121398EA76
:102203003E00121398AA3F00121398B73F0012130F
:10221300981A4000121398AF4000121398E540003B
:10222300121398624100121398024300121398D6B6
:102233004400121398B74500121398014700121374
:1022430098634900121398C84A001213985D4B0013
:10225300121398904C00121398844D00121398BDDA
:102263004E00121398535300121398405400121344
:1022730098D85400121398FD54001213982955004E
:10228300121398C15500121398D75500121398F9D9
:1022930055001213985F56001213987E56001213BE
:1022A30098A75600121398C757001213989D580009
:1022B300121398125A00121398335A00121398B437
:1022C3005A001213985A5B00121398A25B00121360
:1022D30098135C001213989F5C00121398035D001F
:1022E300121398635D00121398125E001213987E06
:1022F3005E00121398B15E001213982F5F00121341
:10230300988B6000121398FB60001213988D610084
:10231300121398F06200121398776300121398DC7B
:1023230063001213980A660012139896670012133B
:1023330098A66700121398DA67001213984868008A
:10234300121398836800121398E568001213987AA1
:102353006900121398556B00121398206D00121325
:10236300982A6E00121398277200121398F47200C1
:102373001213980C7400121398B67500121398ED8B
:10238300F101121398A4F201121398ABF301121383
:102393009829F4011213986BF5011213988CF50127
:1023A30012139844F601121398EFF601121398CF03
:1023B300FA01121398EBFC0112139852FE01121347
:1023C30098F7D207121398BDD60312139818D703A0
:1023D300121398A2D70312139813D903121398EB6D
:1023E300D903121398D4DA03121398EBDA031213F6
:1023F300983DDB03121398A1DB03121398E2DB036E
:10240300121398F5DB031213984BDC03121398A4F1
:10241300DC03121398BCDC031213986CDF03121352
:102423009801E0031213982BE00312139874E0034E
:1024330012139864E203121398CEE203121398A2C4
:10244300E303121398E5E303121398FFE303121354
:102453009846E40312139866E40312139810E503F5
:102463001213980EE60312139868E603121398B931
:10247300E603121398C4E70312139868EA031213CE
:102483009895EA03121398FEEA0312139823EB03B9
:102493001213989DEB0312139866EC03121398A37F
:1024A300EC0312139805ED03121398C6ED031213F0
:1024B30098C9ED03121398D3ED03121398DDED03BE
:1024C300121398F0ED031213986CEE031213989500
:1024D300EE03121398A8EE03121398D4EE0312130B
:1024E30098FBEE031213981FEF031213985AEF038E
:1024F300121398CCEF03121398F4EF0312139835C9
:10250300F0031213986AF0031213988AF00312135C
:1025130098C7F003121398FEF00312139808F203FE
:102523001213983BF30312139851F3031213984CAD
:10253300D20712139864D2071213984CCB071213C5
:1025430098B0B706121398FFB7061213989FB906EF
:102553001213985ABB061213989CBB061213988544
:10256300BC061213988FBD06121398B1BD06121341
:1025730098FBBD061213987CBE061213982ED80240
:1025830012139851D80212139844D9021213988D3A
:10259300D902121398E5D90212139841DA021213E1
:1025A300988DDA0212139803DB021213988FDB0261
:1025B30012139804DC0212139847DC0212139818C2
:1025C300E00212139867E202121398A1E2021213B7
:1025D3009825E30212139856E602121398CBE602EB
:1025E3001213985BE80212139863E90212139879A5
:1025F300EA02121398EFEA02121398B6EB021213CF
:10260300981FEC0212139822EC02121398F6EC02B4
:10261300121398869606121398F2EF02121398ED8E
:10262300F102121398F8F20212139894F3021213A0
:1026330098DFF402121398E5F50212139848F60294
:10264300121398E5F602121398008005121398A04E
:1026530080051213980A8105121398B1810512138C
:1026630098108205121398BC82051213986585058C
:102673001213988B86051213980F8705121398EC83
:102683008805121398918905121398348A05121339
:1026930098938A051213984C8B05121398CB8C05CB
:1026A300121398888E05121398D2E10512139863BA
:1026B3009105121398739205121398199305121327
:1026C300983894051213989BD40412139813D504C5
:1026D3001213985BD5041213989FD504121398E82C
:1026E300D50412139832D60412139867D604121322
:1026F30098E5D6041213983FD70412139898D80478
:1027030012139817D9041213982EDA04121398503F
:10271300DA041213985CDB041213986DDB041213B2
:102723009885DB04121398A5DC04121398C2DC0409
:1027330012139895DD04121398B9DD04121398D07F
:10274300DD04121398F1DD0412139813DE0412133F
:102753009805DF041213985DDF04121398D3E00485
:1027630012139831E10412139850E1041213988262
:10277300E204121398FFE2041213986CE304121399
:1027830098ACE3041213980EE404121398BEE40405
:1027930012139890E6041213987BE70412139875AA
:1027A300E8041213987BE90412139897EA041213AE
:1027B30098A5EA041213987EEB041213981EEC04F6
:1027C30012139862EC0412139877EC04121398888E
:1027D300ED041213982BEE0412139883EE041213D4
:1027E30098ADFC0612139855FE0612139812FF06B5
:1027F30012139867FF06121398C09E07121398DEF0
:102803009E07121398229F07121398489F071213CB
:10281300986E9F07121398869F071213989E9F071F
:10282300121398B69F0712139819A0071213985BF7
:10283300A0071213987DA10712139886A1071213FC
:10284300988FA10712139898A107121398A2A107B2
:10285300121398C3A1071213984F92071213982FBC
:1028630096071213983D9607121398429607121370
:1028730098A9BB07121398EBD107121398C1D3077A
:10288300121398A5C007121398EDD30712139800DB
:102893008002121398578002121398C380021213F6
:1028A300984F81021213980582021213984D8202E7
:1028B300121398668202121398898202121398AB3C
:1028C3008202121398E982021213983883021213B8
:1028D30098638302121398C18302121398688402C7
:1028E3001213981085021213988C850212139859AB
:1028F3008602121398A08602121398EC8602121312
:1029030098748702121398AD8702121398038802F2
:102913001213981F88021213984E88021213985AA2
:102923008A02121398888B02121398B48B02121323
:1029330098E88B02121398098C02121398188C02D0
:10294300121398238C02121398D28C0212139842FA
:102953008D02121398CD8D02121398D58D02121386
:1029630098428E021213987E8E02121398448F029D
:102973001213981790021213986C90021213980B6B
:102983009102121398659102121398AA91021213DD
:102993009843940212139886950212139870980222
:1029A300121398549902121398389A0212139849E1
:1029B3009A02121398BB9A02121398529B02121393
:1029C30098B79B02121398A79C02121398CC9C02EF
:1029D300121398EA9C02121398069D021213987917
:1029E3009D02121398889D02121398109E021213CF
:1029F300980D9F021213981A9F02121398239F0295
:102A030012139805A10212139827A20212139837E2
:102A1300A20212139865A302121398E4A3021213DD
:102A230098FFA4021213983BA50212139815A7024C
:102A3300121398D2AA02121398E6AA02121398F05C
:102A4300AA02121398FAAA0212139804AB021213E1
:102A5300981DAB0212139827AB0212139894AB0282
:102A63001213989FAB02121398C7AB02121398D29A
:102A7300AB0212139837AC0212139842AC02121332
:102A83009866AC021213988AAC02121398FCAC023B
:102A930012139845AD0212139861AD02121398D226
:102AA300AD021213981EAE0212139867AE021213F0
:102AB30098A5AE0212139826AF02121398CDAF0257
:102AC3001213989CB10212139801B2021213982F99
:102AD300B30212139855B3021213989DB402121342
:102AE30098D7B702121398D5B902121398A0BB0254
:102AF30012139839BC021213983ABE02121398EFBC
:102B0300BE0212139828BF021213988EBF0212132B
:102B13009898BF02121398C1C10212139800C302FE
:102B230012139857C30212139802C402121398B2D5
:102B3300C502121398FFC6021213981FC70212137D
:102B43009874C70212139875C8021213989DC8028D
:102B5300121398FCC802121398F4C9021213986B4B
:102B6300CA021213987ECB02121398ECCB021213F3
:102B730098EBCC0212139845CF021213986ECF0232
:102B8300121398D4D00212139856D202121398AD8E
:102B9300D2021213985BD30212139800D4021213B9
:102BA3009859D40212139817D502121398A9D50273
:102BB30012139808D6021213984AD6021213987B5E
:102BC300D602121398D2D70212139800800312135D
:102BD300983280031213986B80031213982982038F
:102BE300121398FF82031213985E830312139874CF
:102BF3008403121398C084031213984E870312138D
:102C030098288A031213986F8B03121398078C0367
:102C1300121398138C031213985C8C031213989E4F
:102C23008D03121398948E03121398BE8E031213FE
:102C330098148F031213986D8F03121398E08F0368
:102C430012139816920312139898930312139883EE
:102C53009403121398CD9503121398059803121336
:102C630098029B03121398119B03121398A59B03BD
:102C7300121398509C03121398939C03121398DC1D
:102C83009C031213982C9D03121398909D03121307
:102C930098029E031213981E9E031213984D9E03CF
:102CA3001213988C9E03121398879F03121398365E
:102CB300A003121398B3A203121398E5A3031213EC
:102CC30098BDA4031213983FA50312139874A90384
:102CD300121398A3A903121398FEA9031213983190
:102CE300AA03121398A9AA03121398DCAA031213B6
:102CF300983DAB031213988DAB031213985AAC0390
:102D030012139813AD03121398D7AD0312139851EE
:102D1300B003121398B3B10312139804B30312133D
:102D23009828B4031213982BB4031213985AB403BC
:102D330012139852B60312139811B7031213984043
:102D4300B7031213985EB80312139826B90312132C
:102D530098E4BA0312139816BB0312139858BB03D3
:102D630012139857BC03121398CABC03121398F397
:102D7300BE0312139852BF03121398A6BF03121374
:102D830098D5C103121398B8C20312139874C303DE
:102D930012139888C3031213989CC303121398C980
:102DA300C303121398F9C303121398B4C503121380
:102DB30098C6C6031213981BC70312139864C7035C
:102DC3001213988BC70312139853C803121398F95D
:102DD300C8031213987FCA03121398C6CA031213A7
:102DE3009838CB031213988DCC0312139836CD0366
:102DF3001213986ACD0312139882CD0312139825E8
:102E0300CE03121398A1D00312139849D2031213BD
:102E13009867D20312139885D20312139851D303E0
:102E23001213989FD603121398698401121398A161
:102E33008401121398A18901121398E789011213CF
:102E4300981D8B01121398828B01121398F78C0132
:102E53001213980190011213982A91011213983DAD
:102E63009B01121398CD9B01121398B79E01121365
:102E730098C49F0112139827A0011213986FA10100
:102E8300121398DDA3011213986FA501121398FC76
:102E9300A5011213981BA701121398A8A7011213D7
:102EA30098B2A701121398DAA7011213987AA8010E
:102EB30012139865A90112139832AA011213984F9D
:102EC300AA0112139878AA01121398A5AA01121342
:102ED30098ECAC01121398BBAD01121398FAAD0133
:102EE3001213987CAE011213981DAF011213984F61
:102EF300AF0112139896AF01121398C9AF011213C1
:102F0300980DB0011213985CB00112139861B001CF
:102F1300121398BDB00112139801B101121398DB7B
:102F2300B10112139840B201121398A6B201121301
:102F33009821B30112139889B6011213988CB70123
:102F43001213980AB90112139820BC01121398C2E4
:102F5300BC011213980BBF01121398C6BF011213C1
:102F63009805C001121398DDC101121398FAC1012B
:102F730012139803C2011213980CC201121398176B
:102F8300C20112139836C201121398DAC301121345
:102F93009837C40112139841C4011213984BC4010A
:102FA300121398AAC401121398F4C401121398F5CA
:102FB300C5011213984CC6011213985DC701121371
:102FC30098A6C70112139860C80112139877C90114
:102FD3001213984CCA0112139893CB0112139897AA
:102FE300CC0112139890CD01121398A8CD0112139E
:102FF30098DFCD01121398E9CD01121398F3CD0197
:10300300121398FECD011213981CCE01121398646B
:10301300CE01121398C2CE01121398E9CE011213F6
:1030230098FBCE01121398B0CF01121398E9CF0188
:103033001213980BD1011213985ED1011213984405
:10304300D2011213986BD201121398DBD20112131F
:103053009857D301121398B3D401121398DAD501F8
:103063001213989CD6011213986AD7011213982849
:10307300D80112139810D901121398BAD901121357
:103083009822DA01121398D7DA0112139833DB016D
:103093001213988BDB0112139851DC0112139874ED
:1030A300DC011213982FDD0112139851DD01121365
:1030B30098B2DD01121398E2DF01121398DBE001ED
:1030C30012139887E101121398A8E301121398F1E0
:1030D300E3011213983CE40112139898E4011213CC
:1030E30098F6E4011213981AE5011213983EE501CC
:1030F30012139873E5011213989BE501121398E0DC
:10310300E50112139834E6011213988DE6011213A8
:103113009887E70112139825E9011213986AE901C8
:1031230012139893E9011213981CEA011213988F52
:10313300EA011213989DEA01121398C1EA011213CE
:103143009817EB0112139832EB01121398EDEB0170
:1031530012139819EC011213985CEC01121398BF27
:10316300EC01121398CDEE01121398F9EE0112132C
:1031730098B4EF0112139898F0011213982CF101EF
:10318300121398A1F405121398D9F405121398FA9F
:10319300F4051213983CF505121398A0F5051213C4
:1031A30098AAF505121398BAF505121398F1F505C7
:1031B3001213989AF90512139862FB051213984695
:1031C300FD05121398E8FD0512139872FE051213FC
:1031D30098508004121398F98004121398D881042C
:1031E300121398E48204121398048304121398268A
:1031F3008404121398D68504121398438604121379
:10320300981487041213981A880412139892880446
:10321300121398CD88041213982689041213986107
:103223008904121398AA89041213983E8A0412136C
:1032330098D48A04121398A98B041213987C8C04D3
:103243001213980A8D04121398308D041213985D8B
:103253008D041213988E8D041213985B8E0412132F
:10326300986B8E04121398BE8E04121398CB8E049F
:10327300121398D88E04121398E18E0412139845F2
:103283008F04121398A38F04121398EE8F04121352
:10329300980990041213983090041213984D9004D7
:1032A300121398599004121398EA91041213980375
:1032B30092041213987F9204121398929204121399
:1032C30098A29204121398469304121398B294048A
:1032D300121398C595041213986596041213986FE8
:1032E3009604121398EE9604121398FF9604121381
:1032F300983E97041213986C970412139839980404
:10330300121398909804121398C998041213981FD3
:1033130099041213983D99041213988B990412136C
:1033230098569A04121398A49A04121398F19A04C3
:10333300121398749B041213989E9B04121398D42F
:103343009B04121398E39B04121398429C041213D8
:1033530098BA9C04121398FB9C041213984B9D0477
:10336300121398769D04121398909D04121398AA31
:103373009D041213987F9E04121398899E041213BE
:1033830098C49E04121398D49E04121398259F0484
:10339300121398399F041213985BA00412139870A8
:1033A300A00412139803A10412139877A104121313
:1033B300981CA20412139827A2041213988AA30438
:1033C300121398A6A304121398F2A304121398607D
:1033D300A40412139892A404121398ACA404121315
:1033E300980CA504121398ABA504121398F6A50420
:1033F30012139849A804121398E1A80412139858B9
:10340300A904121398B5AB04121398CDAB0412138D
:1034130098D0AB04121398DCAB04121398F0AB04EE
:10342300121398F8AB041213982FAC0412139823B9
:10343300AD04121398ADAD041213982FAE041213FA
:1034430098AFAE0412139886AF04121398A8AF0472
:1034530012139841B0041213989EB004121398A14A
:10346300B00412139810B1041213985CB20412132F
:10347300986FB304121398FAB3041213980DB5049A
:10348300121398D4B50412139805B6041213982B8B
:10349300B60412139834B60412139863B6041213C5
:1034A3009813B704121398C3B70412139836B804C9
:1034B300121398D9B8041213984CB9041213988BA9
:1034C300B904121398D4B9041213983B9606121335
:1034D30098A5950612139816940612139809FC04DE
:1034E3001213988EFA041213988CF9041213984D40
:1034F300F704121398F7F6041213983AF50412130B
:1035030098B1F2041213982BF204121398E7F00403
:10351300121398FEE005121398FEDF05121398A309
:10352300EF041213981CEF041213981FDF051213F4
:10353300985DDD061213984BAA0712139823AA0766
:10354300121398B6A90712139856A9071213982AAB
:10355300D30512139850D20512139886D10512136E
:1035630098F5CF05121398BECF0512139890CF0587
:1035730012139844CF05121398ADCE051213981D5C
:10358300CE05121398F7CD05121398ACCD0512137F
:103593009876CD05121398F9CC0512139894CC059F
:1035A30012139843CC051213986BCB05121398DBB7
:1035B300CA051213988FCA051213980ACA05121363
:1035C30098C5C905121398A9C90512139851C805BE
:1035D300121398BEDC0612139823C805121398FC25
:1035E300D80612139821D8061213989AD3071213E8
:1035F300987FD3071213986A9C061213980C9B06A4
:10360300121398A39A061213983A9A06121398F073
:10361300C70512139874C70512139826900712133F
:1036230098178F071213981A9906121398518E0739
:10363300121398D88D0712139856F405121398FD98
:10364300F3051213985C9806121398C8F305121326
:103653009809900512139893F3051213985FF305D5
:10366300121398F2F205121398DAF205121398B5B1
:10367300F2051213988EEF0512139861ED051213DC
:103683009868EB05121398F4EA05121398A5EA0556
:103693001213985FEA0512139801EA051213984969
:1036A3009006121398C58F06121398A39706121348
:1036B30098DA8E06121398628D06121398128B06EF
:1036C300121398268A0612139832EE020000008025
:1036D300FB8F0001002A1B87000100F91D35000440
:1036E30000BD1D25000200C11D26000200C31D27C9
:1036F300000200C51D28000100CF1D29000100D0D4
:103703001D84000400D11D86000100D51D2A00017F
:1037130000D61D2B000100D71D2C000100DB1D2D41
:10372300000800121B2E000100DC1D2F000100DD2C
:103733001D30000100DE1D31000100DF1D320001DC
:10374300001A1B330001001B1B34000100E01D366F
:103753000001001C1B38000100E11D39000100DAE3
:103763001D83000200F71D63000100271B64000195
:1037730000D81D65000100D91D6D000100281B71D3
:103783000008000A1B66000100F61D43000100E764
:103793001D44000200E81D45000100EA1D46000229
:1037A30000EB1D470008001F1B48000100ED1D4BE7
:1037B300000100EE1D04000100FA1DA1000100FD3F
:1037C3001D37000100FC1D88000100FB1D3C0001AA
:1037D300001D1B3D000100E21D49000200EF1D67B3
:1037E300000100291B4D000200F11D4E000100F3F2
:1037F3001D4F000200F41D3E000100E61D510001B3
:1038030000E31D52000100E41D53000100E51D54B7
:103813000001001E1B0000000000000001363601FD
:103823000100010201000103010001040106060574
:10383300020000070100340801000F090401010D13
:103843000100FF0E08000017020000190100FF1A13
:103853000100011B0100FE1C0100081D0200001FE6
:1038630001000120010001210200002301000F24B7
:103873000200002601000127010008280200FF2A98
:103883000100072B0102402C0100002D0100012E35
:103893000100012F0100FF30010B1D310800003A28
:1038A3000100083B01000F3C0100013D0100FF3E08
:1038B30004000042040000460400004A0400004ED5
:1038C30004000052040000560400005A04000000E3
:1038D30000000020016584000001002001658400D0
:1038E30000020020016884000003002001668400B8
:1038F30000040042016D800000050042017E80004B
:103903000006004201A080000007002001AB8000F8
:103913000000404201A0800000100042018F80009F
:103923000011002001FF06000012001003891D068C
:103933000000001011000008000000203300000CFC
:10394300005500393300000C001C00423300001204
:103953000055002001000014000E00422200000167
:1039630003710301030103010301030103220302A2
:10397300030103100300030003000300030003001B
:1039830003000342030003240306030003000304AC
:103993000312032503230325032303040304030062
:1039A3000300030003440300030003230300036530
:1039B3000321003503810300030503000300030013
:1039C3000300032503230301017101010101011117
:1039D3000101013101010101018001100161013B7C
:1039E30000140063017301720162014301000113BA
:1039F3000106013D0135000401120100010001002F
:103A030001000104010401330133013C014401328B
:103A1300013600000100016501000135008101004C
:103A230001050182018301000103047104020460A2
:103A3300041104700402040204010402041004616A
:103A43000400041404630473047204620443040052
:103A53000413040604000400040404120400040014
:103A6300040004000451046400000400040004443E
:103A73000400040004000400046504000435048108
:103A8300046400050400048304000403027102308B
:103A9300016002110270020102020202028002109E
:103AA3000261023A0041006302730272026202433E
:103AB3000200021302380000020002040212020094
:103AC3000200020002000204020402370037003C35
:103AD30002440200023900000200026502000235BE
:103AE30002810200020502820283020002030071C6
:103AF3000030016000110070003102200350048087
:103B03000010006100000014006300730072006283
:103B13000043000000130006000000000004001230
:103B2300000000000000000000040004003700371C
:103B3300003C02440000000000000000006500009B
:103B430000350081000000050000008300000036FE
:103B5300000100060000000F00000000000000004C
:103B6300000000000003FFFF00000403FFFF00004C
:103B7300FFFF0FF4010005C4040320000100000B44
:103B8300000000000000000003010F00000000001F
:103B93000000000000000000000000000000000022
:103BA30000000000000000000000000000F5224FAC
:103BB30023FB22FF2101235523012361230723FF35
:103BC30021012355230D23FF211323FF211923FF54
:103BD300211F23FF212523FF212B23FF21312367CE
:103BE300233723FF21000000000000000000000035
:103BF300003D2379234323FF213D2379234323FFDF
:103C030021312367234923FF21000067261300C9BD
:103C1300361F0019261F801F260100672602009BFE
:103C2300250300A1250400A7250500AD250600B93D
:103C3300253000D7253100D1253200E3253300E9B3
:103C4300253500EF253400F5253600FB2511000747
:103C53002614000D261500CB25FFFF00000A0000E7
:103C63000002000000040000000800000010000033
:103C73000020000000400000008000000000010060
:103C83000000020000000400000008000000100013
:103C930000002000000040000001652E068F2E0862
:103CA300892E0BA72E107D2B026B2E057D2E0771FF
:103CB3002E0C4D2E0D592E647929FF000007ECFDC3
:103CC300FDFDECDCDCCCBCACAC9C9C8C7C7C6C6CDF
:103CD3005C5C5C4C4C3C3C2C2C1C1C03EAF5E5D591
:103CE300D5C5B5A5959585857575656555554545C1
:103CF3003535252515150500160F00000B150B028C
:103D03000002220F3300000E5A6967426565416C59
:103D13006C69616E6365303901030507090B0D0F8B
:103D230000020406080A0C0D0001191618161618CD
:103D3300230300303017181921301B1D1F3030307A
:103D430016181920231A1C1E3000034A49434E1823
:103D53001A25050200393D3F373C3C362C442D0CD7
:103D63000E020B040B0A0708000F020402010101F3
:103D730001090200BE040AE803000000000E00E887
:103D83000300007F001E050300030400100A0C104B
:103D9300080C280904040903010C0508151208FF7F
:103DA300C082C083E990197AF00240A874F4120D1E
:103DB300B68A088B09EB5480604D800EEEFAEFFB58
:103DC30012225FEEFAEFFB121EB190197AE0F9129C
:103DD3001EC38A0A8B0BAE0AAF0BEE4F60208E8296
:103DE3008F83E0641A60D5EEFAEFFB1221F9E9F94B
:103DF30074FF6960CEEEFAEFFB121EB780CCAA08FF
:103E0300E5096480FB80047A007B0002409074F72C
:103E1300120DB67AFF0254D074F6120DB6E9FEEA1B
:103E2300FF7A047B001244A3A808A909EA49603475
:103E3300EF8A828B83A3A3A3F0EE8A828B83A312E0
:103E43003E9FE4F0A3F09019891244C370099019BE
:103E530089E8F0A3E9803FE0FB8A828B83A3A3A3D5
:103E6300E06F700479008031EAFCEBFD8A828B837A
:103E73001244C370E474FF6F700C8C828D83123E06
:103E8300A6E4F0A38010901989125DF790198912A6
:103E93003EA6EAF0A3EBF07901025679A3F08A82F9
:103EA3008B8322126D0E8882898322C082C083EAAB
:103EB300126E103BF583E0FA901989800488828999
:103EC30083125C99601C88828983A3A3A3E0FBEA25
:103ED3006B600574FF6B70E588828983A3A3E0F9A7
:103EE300800279FF0240A874F4120DB6EAFEEBFFDC
:103EF3008A82F583125DF71221F9E9F50874FF69E7
:103F03007003023F9B7A197B00121EABEA4B7003CE
:103F1300023F9B8A828B837434126878A3EA24025B
:103F2300FCE43BFD74061213118E828F83127160C1
:103F33008882F583126E228A828B83A3A3A3A3A311
:103F4300A3A3A3123FA0A3A3A3A3A3A3EA240AFCAE
:103F5300E43BFD740C1213118E828F83125F2AC807
:103F6300126E1038F583E0C0E0EA2416F582E43BD4
:103F7300F583D0E0F0EE240CF8E43FF98882F58372
:103F8300126E26EA2417F582E43BF583123FA0E480
:103F9300F0A3F0A908121EB77901024090ECF0A338
:103FA300EDF08882898322C082C083901987125DD5
:103FB300F70240A874F4120DB68A088B09ECFEEDE3
:103FC300FF7A0812400A7004791080381240741284
:103FD300409C740C121742125DF788828983A3A355
:103FE300A3A31277BA90197F1244C390197F60116B
:103FF3001240978003EAFCEB1244BE70F88C828D6A
:104003008312406E0240907B00121F418A0A8B0B81
:10401300A80AA90BEA492274F4120DB689088A0981
:10402300ECFEEDFF7A0A12400A70047910803A120E
:1040330040748A828B83A3A3A3E4F0A3124087E591
:1040430009124087A3EEF0A3EFF09019831244C343
:1040530090198360111240978003EAFCEB1244BE6F
:1040630070F88C828D8312406E8022126D0E79005F
:1040730022124078228A828B83E4F0123E9FA3A30C
:10408300E508F0221254C1A3A3221213C87F04022D
:1040930010C08F83E0FCA3E022A3E5091254C6EE0F
:1040A300F0A3EFF022D083D08202139574F2120DA5
:1040B300B6EAFEEBFF8C088D091222778B0DA90D52
:1040C300EA4960198A828B83A3A3A3EEF0A3EF12BC
:1040D30054BDE508F0A3E509F079008002790102F7
:1040E3005E7974F4120DB674F71214ABE9FE8518F9
:1040F300828519837401F0EC7006EDC39406404D7C
:1041030074036A4B6047740112147D880A890B7823
:104113000A1213B57C127D007A007B00EE12415B1C
:104123001213C8E9601CE4F50AF50B780A1213B5FB
:10413300740312148D74021214851222CB740212AA
:1041430013C8851882851983E0640170047901809E
:10415300027900740902408DF912227D74022274DF
:10416300E8120DB674FA1214AB89128A168B178CE7
:10417300088D091236698A148B15EA4B700579028A
:104183000242F1AA08AB09A912122295E9F50FA27E
:10419300E6401C901987125C996014E82419F58293
:1041A300E439F583E064017006E50FD2E6F50F7C90
:1041B300067D007900AA18AB19121E99741F1217F5
:1041C300421242F66009E054FCF0E044018003E04F
:1041D30054FC127208125C99602B741E121742E091
:1041E300FE88828983A31211CCEEFD74021217425A
:1041F300E05403FCAA08AB09A91212221D7402128F
:1042030013C8E9700579010242F1742212174212B0
:104213005C996012851882851983E04404F0740266
:10422300121742126D0A74201217421242F66005E9
:10423300E044088003E054F7F0742112174212425D
:10424300F66005E044108003E054EFF07424121785
:1042530042E0C0E07404121742D0E0F07405121774
:1042630042EEF07803851882851983E054046002D6
:10427300780574251217421248EAE82510FEE43542
:1042830011FF1245886063AC0AAD0BAA18AB191273
:10429300226B7427121742125E091213B1AC10ADD0
:1042A300111260781213C8750C1E780C1213B975AD
:1042B3000C7D750D19780C1213B5780A1213B58E8F
:1042C3000C8F0D780C1213B578081213B5A90FAC27
:1042D30014AD15AA16AB1712367574091213C8E973
:1042E300FEAA0AAB0B121F4780027E10EEF974067A
:1042F300026D181242FA22E085188285198322740E
:10430300EA120DB674FE1214AB890B8A148B158C4A
:104313000E8D0F7E007F00750A007418121742126B
:1043230048EA80111244B41222D78B09EE2AFEEF19
:104333003509FF050A126B23502EE50A75F00612A4
:1043430048A12403FEE43FFFA3A3E070E60EEE7052
:10435300010F88828983A3A3A3A31244C3888289FC
:104363008360C1125C0A80C2EEFAEFFB1244A38A97
:104373000C8B0DEA4B7003024497750A008030A83A
:1043830018A9198812891378121213B57808121311
:10439300B58A828B831244B41222DD74041213C8CB
:1043A30012715AE50828F508E50939F509050A12D5
:1043B3006B23507CE50A75F006A4F8A9F0E51028F4
:1043C300F582E511126B0A1244AB8A828B83A31226
:1043D3005431F01254A512542CF0E5082403F508C7
:1043E3005002050988828983E070C2EA240308E445
:1043F3003BF98882F5831244ABA385820885830940
:104403008A828B83A3A3A3A31240978C82F583E5AF
:104413008245837003024382AC08AD09AA82AB8351
:1044230088828983E0F91222AD8A088B090243B09E
:10443300780C1213B58E088F0978081213B57420FF
:104443001217421248E01213B9E4F508F509780887
:104453001213B574221217421248E01213B97422D0
:104463001217421248E01213B975080078081213A4
:10447300B975080178081213B9AC0EAD0FAA14ABC5
:1044830015A90B124D7E1213C8E9FEAA0CAB0D122F
:104493001F4780027E10EEF974021213C80244D142
:1044A300121F418A088B0922E0850882850983F05F
:1044B300221271F6AA0EAB0FA90B22FD8C828D83FB
:1044C300125DFFEA4B22EEF98004AA12AB137F0EB2
:1044D3000210C074EC120DB6890A8A108B11ECFE1F
:1044E300EDFF74141217421246DC7003024579A8DB
:1044F30008A9097C00800D1246BF50010B1246EF3C
:104503005001090C850C82850D83E0FAECC39A40B7
:10451300E674016A700AA3E07006750E01750F0058
:1045230078081213B5780E1213B5741C12174212C1
:1045330046B91213B9E4F50CF50D780C1213B574E2
:104543001E1217421246B91213B9741E12174212E1
:1045530046B91213B9750B00780B1213B9750B0416
:10456300780B1213B9124D741213C8E9FEAA08ABE3
:1045730009121F4780027E100246A2740A1213C852
:104583007F0C0210C0EEFAEFFB121F418A0A8B0B5D
:10459300EA4B22F5831257C122F8E4350DF98882DC
:1045A300F5831248D0A322851082851183E0F8E5B4
:1045B30008C3982274EC120DB6890A8A108B11EC89
:1045C300FEEDFF74141217421246A7F50875090091
:1045D3007402780812161085080E85090FAA0EAB0F
:1045E3000F1273C570030246A07900803EE9F512ED
:1045F30075130074027812121610E50C2512FCE5EF
:104603000D3513FD8C82F583A3124598124EAAA390
:10461300124598A3F0EC2403FC50010DF5828D8321
:10462300E0124EA4124E7E50010B09850C82850DBB
:1046330083E0F8E9C39840B5740168700AA3E07099
:1046430006750E01750F0078081213B5780E121354
:10465300B5741C1217421246B91213B9E4F50CF5DE
:104663000D780C1213B5741E1217421246B91213A9
:10467300B9741E1217421246B91213B9750B00789A
:104683000B1213B9750B07780B1213B9124D741271
:1046930013C8E9FEAA08AB09121F4780027E10EE79
:1046A300F90245831246AB22E0F50CA3E0F50D8534
:1046B3000C82F583E022E0F50B780B22EC75F00316
:1046C300A4FAABF0E50C2AFAE50D3BFB8A82F583ED
:1046D3001248FDF0EA2402FA221246AB75F003A455
:1046E300F50EE5F0F50FAA0E1271B322F5828B8356
:1046F300124AB41248F6A3A3F0E82403F82274E89C
:10470300120DB674FE1214AB124948121742124826
:10471300EA8009EE2402FEE43FFF05081245AA5091
:1047230037E50875F00D1248A12404FEE43FFFE0CD
:1047330070E8A3E070DDEE2405FEE43FFFE8240407
:10474300F50AE4391248BC60D1850A82850B83E0FF
:10475300F91222BFEE2980BE124588700302489CDD
:104763008A0E8B0F7508008018E50C2409FAE435CE
:104773000DFB8A821248CA1248F2F08C0E8D0F0587
:10478300081245AA4003024839E50875F00D12499D
:1047930004AA82AB831245A5F0E50C240212459CC2
:1047A300124919A3F0E50E2404F50E5002050F85F6
:1047B3000C82850D83E070C7E50E2402FCE4350FFF
:1047C300FD850E82850F83A3A882A9838A828B83AA
:1047D300E07096E50C2404F512E4350DF51385120B
:1047E300821248CAF0E50C2405F516E4350DF517D9
:1047F3008516821273C912492B2407F8E4350DF983
:1048030088821248CA124940F0E50E2405F50E507D
:1048130002050F8512828513831248C37003024772
:1048230082AC0EAD0FE50C240BF582E4350DF58358
:104833001248D8024782780A1213B58E0C8F0D786E
:104843000C1213B574221217421248E01213B9E482
:10485300F50CF50D780C1213B57424121742124897
:10486300E01213B974241217421248E01213B975F7
:10487300080078081213B975080978081213B9AC3F
:1048830014AD15740B1217421248B11213C8E9FE86
:10489300AA0AAB0B121F4780027E10026D14A4F804
:1048A300A9F0E51028F582E511124A4FEE22125DB8
:1048B300FFA909122223740B22F50B850A82F583C3
:1048C300E0F91222B3E922F5831248D022E0850EE3
:1048D30082850F8322124AB98A0E8B0F22E0F508D4
:1048E3007808228E828F83E0F510A3E0F51122125F
:1048F30048F622123EA01248FD22A3E08882898353
:1049030022126CD885820C85830D1248D0F0850C59
:1049130082850D83A32212491D22A3124B56E085E3
:104923000E82850F83A3A322F08516828517831237
:104933004939F0E50C22A3E08C828D8322A3A312D4
:10494300491DA3A322851882851983EAF0A3EBF0FE
:1049530089098C148D157E007F00750800741A2256
:1049630074EA120DB6890B8A108B118C0E8D0F7E93
:10497300007F00750A0074161217421252EC80036E
:10498300124A1C850C82850D83126B2940F2EEFAC4
:10499300EF1273C4607EA808A909750A0080031288
:1049A3004A58850C82850D83E0FAE50AC39A40EFE5
:1049B30078081213B58E0C8F0D780C1213B5741E74
:1049C300121742126B4F1213B9E4F50CF50D780C64
:1049D3001213B57420121742126B4F1213B97420BD
:1049E300121742126B4F1213B9750A00780A121389
:1049F300B9750A0A780A1213B9AC0EAD0FAA10AB37
:104A030011A90B124D7E1213C8E9FEAA08AB0912B5
:104A13001F4780027E100244C9E50A75F005A4F819
:104A2300A9F0E50C28F582E50D124A4FA3A3A312C2
:104A330077C2A3A3E0F91222C58B09EA2403F8E4A1
:104A43003509F9EE28FEEF39FF050A2239F583A36C
:104A5300A882A98322E50A75F005A4FAABF0124AED
:104A6300A88582148583151248FE124E9F88828979
:104A730083A3F0E51412750535158A12F5138A829E
:104A8300F583124AB4A3F0E82403FCE439FD85144A
:104A930082851583A3A3A3124AB98A128B13A81282
:104AA300A913050A22E50C2AF582E50D3BF583A33C
:104AB300221248FEA322125E03851282851383E02D
:104AC300F91222AD2274F6120DB674FE1214ABE97C
:104AD300FE740C121742124B47C0E07401121742C6
:104AE300D0E0F0A818A9198808890978081213B525
:104AF30075080275090078081213B5741612174267
:104B03001248E01213B974151217421211CC74161D
:104B13001217421248E01213B974161217421248C0
:104B2300E01213B975080078081213B975080B78E9
:104B3300081213B9EEF9124D7E1213C87402121340
:104B4300C80256791272228882F5831242FA124BF6
:104B530056E022F088828983A32274EA120DB68973
:104B6300138A108B11ECFEEDFF74161217421275A7
:104B730023E50A2402F50CE4350BF50D850C82F5CB
:104B830083E004751200F50E750F00FAAB0F127374
:104B9300C57003024C88850A82850B83124D688099
:104BA3001EEAFC850A82850B83A3A3A3E02CFBA347
:104BB300E034008B821273C9F0A3A882A9830A850B
:104BC3000C82850D83E0FBEAC39B40D5850A828571
:104BD3000B83A3E0F87418121742E0F97419121743
:104BE30042E0FA741A121742E0FB741168703978C4
:104BF300081213B5780E1213B5EBF50A780A1213DF
:104C0300B9E4F50AF50B780A1213B5EAF50A780A3E
:104C13001213B9E9F50A780A1213B9750A00780A6A
:104C23001213B9750A12803C741368704F78081216
:104C330013B5780E1213B5EBF50A780A1213B9E41B
:104C4300F50AF50B780A1213B5EAF50A780A121376
:104C5300B9E9F50A780A1213B9750A00780A12132A
:104C6300B9750A14780A1213B9EEFCEFFDAA10AB5A
:104C730011A913124D7E1213C8E9F512AA08AB0944
:104C8300121F478003751210A9120244D174E8124F
:104C93000DB689108A128B13ECFEEDFF74181217F0
:104CA30042124E8A75F003A4A9F02401F50EE439EB
:104CB3001273C07003024D61850C82850D83124D02
:104CC30068802EEA75F003A4FCADF0E50C2CFCE53E
:104CD3000D3D124E701273C9124E9B888289831246
:104CE3004EB188828983A3A3F0E82403F850010915
:104CF3000A850A82850B83E0FBEAC39B40C57808DB
:104D03001213B5780E1213B57420121742126B4F9B
:104D13001213B9E4F50AF50B780A1213B5742212CB
:104D23001742126B4F1213B97422121742126B4FB0
:104D33001213B9750A00780A1213B9750A0D780AA5
:104D43001213B9EEFCEFFDAA12AB13A910124D7E9C
:104D53001213C8E9FEAA08AB09121F4780027E108E
:104D6300EEF9026D1B1257C1F0A3A882A9837A0042
:104D730022EEFCEFFDAA10AB11A90A122223740B39
:104D83002274E8120DB689128A108B11ECFEEDFF26
:104D93007418121742124E8AF508750900740278C6
:104DA30008121610E5082401F50EE435091273C044
:104DB3007003024E6B850C82850D831257B8A3AA2C
:104DC30082AB8379008034E9F51475150074027899
:104DD30014121610E50C2514FCE50D3515124E7052
:104DE300124596124E9B8A828B83124EB1124EA4A9
:104DF300A3A3A3A3124E7E50010B09850A82850B40
:104E030083E0F8E9C39840BF78081213B5780E120F
:104E130013B57420121742126B4F1213B9E4F50A3B
:104E2300F50B780A1213B57422121742126B4F1244
:104E330013B97422121742126B4F1213B9750A0079
:104E4300780A1213B9750A16780A1213B9EEFCEF31
:104E5300FDAA10AB11A912124D7E1213C8E9FEAAC6
:104E630008AB09121F4780027E10024D63FDEC243C
:104E730002F514E43DF515851482221257C1A3A34C
:104E8300A3F0EA2404FA221252F0850C82F583A3DC
:104E930085820A85830BE022124E9F2212720EE056
:104EA300228A828B83A3A3F08C828D83A322A3F017
:104EB3008C828D83A3A3A3A3E02274F1120DB67495
:104EC300EB1214ABEAFEEBFFC200EA2420F8E43F46
:104ED3008808F5098882F583C3E09403A3E094006E
:104EE300500579010252E49019871277BC740212BB
:104EF30017421277BC740E121742E4F0A3F0740A3F
:104F0300121742E4F0A3F0740C121742E4F0A3F07A
:104F1300EA2422F8E43F880AF50B8882F583126EAF
:104F2300267404121742AA82AB831222658A0C8B61
:104F33000DA80CA90D740A1217421277BC850882BA
:104F4300850983125DF7EAC398F8EB99F9850A821C
:104F5300850B83E028F8A3E039F9740C1217421289
:104F63006D0A7408121742E090197EF0EE2414F5CE
:104F730008E43FF509850882F583E0F91236698A6A
:104F8300828B83E5824583700C901987E4F0A3F04C
:104F930079020252E4125332602BEE2404F50AE440
:104FA3003FF50BA31211CC740B121742E0FD7406EC
:104FB300121742E05403FC12534112221D740212D1
:104FC30013C8E9700C901987E4F0A3F07903025237
:104FD300E4125341122295E9F50E850A82850B836B
:104FE300125DF7EAFCEBFD90197F800488828983C8
:104FF300125C9970030250E088828983A3A3125242
:10500300ECC3EA950CEB950D40E288828983A3A358
:10501300A3A3C3E09CA3E09D40D2E8FCE9FD740494
:10502300121742E05407700D7409121742E0640B23
:1050330070030250E4E50EA2E640030250E4EE24BE
:1050430019F582E43FF583E060030250E474021231
:10505300174212530A707A7402121742125C947048
:10506300707C00850882850983E0F912229B740114
:105073001217427401F074091217421252F81217F0
:1050830042E0F50C780C1213B9740712174212118F
:10509300CC750C01780C1213B974081217421273F1
:1050A300D51213B9740512147D880C890D780C126E
:1050B30013B574091217421253291217421252FEE2
:1050C3001217421253181213C87C011253411222B1
:1050D3009B901987E4F0A3F079050252E47C007DEC
:1050E300007404121742E0F8540360030251FFE80E
:1050F300540460057E8402523E7409121742E0F89C
:10510300C3941740030251FBE8F50A750B007402C0
:10511300780A12161074B0250AF582743B350B1207
:1051230057A0E84970030251FB850882850983E093
:10513300C0E07410121742D0E0F0740C1217421240
:105143005DF774111217421277BC740A12174212D8
:105153005DF774131217421277BC7410121485880A
:10516300828983120F858B09A909740E12174212C3
:1051730077BCEA4960487409121742E0F5087509DB
:10518300007402780812161074B22508F582743B75
:105193003509F583E493F87401938882F583E582F6
:1051A300458360127402121485120F85740E121750
:1051B30042125C996008740E12174212776B7409DD
:1051C300121742E0F86054740268604F7403686019
:1051D3004A74066860457408686040740C68603BF4
:1051E30074116860367413686031741568602C74C8
:1051F3000B6860277E0080437E82803FEC4D602BEE
:105203008C828D83A3A3A3125332601F74021214E2
:1052130085120F85E9FE74FF6E700B901987E4F019
:10522300A3F0F90252E474016E7010740412174271
:10523300E0540460047E8380027E8174021217426C
:1052430012530A70757402121742125C94706B74D5
:1052530004121742E0FA541070607401121742EE00
:10526300F074091217421252F81217421248E01250
:1052730013B974071217421211CC7508017808127A
:1052830013B9EA131313541F64015401F508780882
:105293001213B9740512147D88088909780812134A
:1052A300B574091217421253291217421252FE12F1
:1052B30017421253181213C8D200901987E4F0A3AF
:1052C300F0EE70047900801974846EA200700A50A5
:1052D300047907800C7906800850047909800279E3
:1052E3000874151213C8025C041252F022E0F50C84
:1052F300A3E0F50D22127766740822E02406FAA3D0
:10530300E03400FB740922125F2AC82415F582E4F5
:1053130038F583E022A3E0C8126E1438F583E0F970
:105323001222477407221271061271F2740922A322
:10533300A3A3125F2A8882F583E582458322850A27
:1053430082850B83125DFF850882850983E0F9223C
:1053530074F4120DB68A088B09ECFEEDFF7C067D12
:10536300007900121E99850882850983E054FCF8B0
:10537300A3E0F98E828F83E05403FAE84A8508821A
:10538300850983F0A3E91277B2A2E25004D2F08038
:1053930002C2F0850882850983E054FBF0A2F0E4A1
:1053A30033F50A750B007402780A121610E0450AE9
:1053B3001277B2A2E3850882850983E0500444088A
:1053C300800254F71277B2A2E45004D2F08002C2F2
:1053D300F0850882850983E054EFF0A2F0E433F509
:1053E3000A7404780A121610E0450A12607E8508D2
:1053F30082850983E0540460108E828F83E0FAA3D0
:10540300E0F9EA1265CF50010F8E828F8312542C7C
:10541300A312543A850882850983A3A3A3A3A3F007
:10542300EE1275053FFB024090125431A322E08532
:105433000882850983A322A3126878E02274F712F5
:105443000DB68A828B83E054038C828D831254B809
:1054530054041254B154081254B15410F88C828D70
:1054630083E048F0A3AC82AD838A828B83E054044B
:1054730060161254A512493A124B518C828D83A3A4
:10548300F0EC2402FC50010D8A828B83A3A3A312A8
:1054930049391254BD12493AA3F0EC1275053DFB8C
:1054A300802EEA2402F8E43BF98882F58322F88C03
:1054B300828D83E048123EA0E0221254C12212548E
:1054C300C6A322F08A828B83A3A3A3A3221221F370
:1054D3007F010210C0C082C08390198180048A8238
:1054E3008B831244C3600C8A828B83A3A3E069700D
:1054F300ED80047A007B000240A8C082C08390192B
:105503008380048A828B831244C360138A828B83D1
:10551300A3A3E0F8E968600B74FF6870E680047A7F
:10552300007B000240A874F0120DB68A088B09ECC8
:10553300FEEDFF1222778A0C8B0DEA4B60627C0032
:1055430080010C850C82850D83A3A3A3A3A3A3A32E
:10555300125F10504BECF50E750F007403780E12AA
:105563001610850C82850D83A3A3A3A31257AA88C3
:1055730082F583E493FA740193FBE5086A7003E50B
:10558300096B70BEA3A31255A77002EF6B70B374BF
:10559300101217421255B174081212CD790180020C
:1055A30079008015E493FA740193FBEE6A22127179
:1055B300F689838882221213C87F080210C074F60A
:1055C300120DB61255ED6005125DF480047A007B6E
:1055D3000002567974F6120DB61255ED6005125D90
:1055E300F280047A007B000256791222778A828B3A
:1055F30083E58245832274F7120DB6E9FFEAFCEBDB
:10560300FD901985800488828983125C996046889D
:10561300828983A3A3E06F70ED7E0080010E8882F0
:105623008983A3A3A3E0FAEEC39A50DAEE75F003DD
:10563300A4FA85F008AB0888828983A3A3A3A3E017
:105643002AFAA3E03BFB8A82F583E06C7003A3E0B4
:105653006D70CA80047A007B000254D374F6120D75
:10566300B612228F8A828B83E58245836006A3A3C9
:10567300E0F9800279007F020210C074F6120DB6C1
:10568300ECFF12228F8B09A909EA496015EA24026B
:10569300F582E439F583EF6005E0D2E68003E0C2EA
:1056A300E6F080D274F0120DB6EAFEEBFF8C098DA2
:1056B3000A1222718A0C8B0DEA4B700302579575FF
:1056C3000B007410121742126B1EFAE9FB80128C46
:1056D300828D83A3A3A3E493A2E3500302577B0524
:1056E3000B850C82850D83A3A3A3E0F8E50BC39878
:1056F3004003025795E50BF50E750F007402780E03
:10570300121610850C82850D831257AA12579AEE32
:10571300687002EF6970C88A828B83E0F88C828D8F
:1057230083A3A3E493C39840B674116509701974F5
:1057330001650A609AE50A70A68C828D83A3A3A3F0
:10574300E493A2E240328097741365097044E50A3A
:10575300700D8C828D83A3A3A3E493A2E080E574F0
:1057630001650A60030256E28C828D83A3A3A3E43E
:1057730093A2E140030256E27412121742125891A7
:1057830074041212CD88828983A3A31257B87901B6
:10579300800279000255BCE8FCE9FD8882F583E4C8
:1057A30093F8740193F922A3A3A3A3E0250EF8A30E
:1057B300E0350FF9221257C1F0228E828F83E08ADF
:1057C300828B832274F0120DB68A088B098C0B121C
:1057D30022778A0E8B0FEA4B700302587E7A007B86
:1057E300007410121742125F1D80050AEA70010B44
:1057F300850E82850F83A3A3A3A3A3A3A3E0F8C36A
:10580300EA98EB940050748A0C8B0D7403780C1295
:105813001610850E82850F83A3A3A3A312588312A8
:10582300579AE508687003E5096970BFA3A3E49379
:10583300F50C740193F50D8E828F83127160C3E5AD
:105843000C98E50D9940A48C828D83A3A3A3A3A3F5
:10585300E493A2E7E433650B7091741212174212BA
:10586300589174081212CD88828983A3A3127160A0
:105873008E828F83126D0A7901800279000255BCF2
:10588300A3A3A3A3E0250CF8A3E0350DF92212721C
:10589300228C828D83E8FCE9FD2274F1120DB6EAB5
:1058A300FEEBFFECFAEDFBEE4F7003025A0FEC2414
:1058B30002F50CE43BF50D8C828D83A3AC82AD83A2
:1058C3008E088F09750A00E912127D044142DC59E2
:1058D3004344EE59E0E2A759E8E9535921084559F1
:1058E3000953590A69590BA75910455918455919AC
:1058F30053591A69591BA7592045592153592269EC
:105903005923A75924B85925C15926CA5927D35908
:105913002845592953592A69592BA7592CB8592D68
:10592300C1592ECA592FD359304559315359385378
:105933005939A7593AD359EAA759F0D359F1005A1B
:105943000F5A8E828F831257B8ECFAEDFB025A0F6F
:105953008E828F8312459812543B8C828D83F00A7A
:105963000AAB0D025A0F8E828F8378081216D38AE0
:10597300828B83E50812687D78081216D3E5098CBB
:10598300828D8312687D78081216D37410780812FA
:10599300144C850C82850D83E508F0EA2403FA5044
:1059A3006B0B80688E828F831211C8121F177404C9
:1059B3001213C8805778081213B17C058046780803
:1059C3001213B17C06803D78081213B17C07803432
:1059D30078081213B17C08802B78081213B18E82D9
:1059E3008F83E02401FCE43400800F78081213B1A4
:1059F3008E828F83125B99FCE439FD80097808124B
:105A030013B17C107D001260781213C8025C04C0CD
:105A130082C083E912127D03202F2A5A383A2A5A68
:105A2300E0E22A5A002E5A7901800279000240A846
:105A330074F2120DB674FE1214ABEAFEEBFF8C087F
:105A43008D091222C58518828519837401F0A3E498
:105A5300F0851882851983E0600C750C01750D00C3
:105A6300780079008033750CFF750DFFEA24FFF889
:105A7300EB34FF8023850882850983E0C0E0EE28AC
:105A8300F582EF39F583D0E01272EB8582088583C6
:105A930009E8250CF8E9350DF9EAFCEBFDEC24FFE8
:105AA3001AED34FFFBEC4D70CC74021213C8025E86
:105AB30079E924F8607814607914607A14607B249F
:105AC300FB606B24F8606714606814606914606A93
:105AD30024FB605A14605B14605C14605D14605EA8
:105AE30014605F14606014606114604214604314B6
:105AF30060441460451460461460471460481460A1
:105B03004914602A14602B24F9602714602C146054
